{
  "_format": "hh-sol-artifact-1",
  "contractName": "Salt",
  "sourceName": "contracts/Salt.sol",
  "abi": [
    {
      "inputs": [
        {
          "internalType": "address",
          "name": "_verifierAddr",
          "type": "address"
        }
      ],
      "stateMutability": "nonpayable",
      "type": "constructor"
    },
    {
      "inputs": [],
      "name": "verifierAddr",
      "outputs": [
        {
          "internalType": "address",
          "name": "",
          "type": "address"
        }
      ],
      "stateMutability": "view",
      "type": "function"
    },
    {
      "inputs": [
        {
          "internalType": "uint256[2]",
          "name": "a",
          "type": "uint256[2]"
        },
        {
          "internalType": "uint256[2][2]",
          "name": "b",
          "type": "uint256[2][2]"
        },
        {
          "internalType": "uint256[2]",
          "name": "c",
          "type": "uint256[2]"
        },
        {
          "internalType": "uint256[1]",
          "name": "input",
          "type": "uint256[1]"
        }
      ],
      "name": "verifyProof",
      "outputs": [
        {
          "internalType": "bool",
          "name": "",
          "type": "bool"
        }
      ],
      "stateMutability": "view",
      "type": "function"
    }
  ],
  "bytecode": "0x608060405234801561001057600080fd5b5060405161096c38038061096c833981810160405281019061003291906100db565b806000806101000a81548173ffffffffffffffffffffffffffffffffffffffff021916908373ffffffffffffffffffffffffffffffffffffffff16021790555050610108565b600080fd5b600073ffffffffffffffffffffffffffffffffffffffff82169050919050565b60006100a88261007d565b9050919050565b6100b88161009d565b81146100c357600080fd5b50565b6000815190506100d5816100af565b92915050565b6000602082840312156100f1576100f0610078565b5b60006100ff848285016100c6565b91505092915050565b610855806101176000396000f3fe608060405234801561001057600080fd5b50600436106100365760003560e01c806343753b4d1461003b578063663ea2e21461006b575b600080fd5b61005560048036038101906100509190610457565b610089565b60405161006291906104db565b60405180910390f35b610073610145565b6040516100809190610537565b60405180910390f35b60008060009054906101000a900473ffffffffffffffffffffffffffffffffffffffff1673ffffffffffffffffffffffffffffffffffffffff166343753b4d868686866040518563ffffffff1660e01b81526004016100eb949392919061077f565b60206040518083038186803b15801561010357600080fd5b505afa158015610117573d6000803e3d6000fd5b505050506040513d601f19601f8201168201806040525081019061013b91906107f2565b9050949350505050565b60008054906101000a900473ffffffffffffffffffffffffffffffffffffffff1681565b6000604051905090565b600080fd5b600080fd5b6000601f19601f8301169050919050565b7f4e487b7100000000000000000000000000000000000000000000000000000000600052604160045260246000fd5b6101c68261017d565b810181811067ffffffffffffffff821117156101e5576101e461018e565b5b80604052505050565b60006101f8610169565b905061020482826101bd565b919050565b600067ffffffffffffffff8211156102245761022361018e565b5b602082029050919050565b600080fd5b6000819050919050565b61024781610234565b811461025257600080fd5b50565b6000813590506102648161023e565b92915050565b600061027d61027884610209565b6101ee565b905080602084028301858111156102975761029661022f565b5b835b818110156102c057806102ac8882610255565b845260208401935050602081019050610299565b5050509392505050565b600082601f8301126102df576102de610178565b5b60026102ec84828561026a565b91505092915050565b600067ffffffffffffffff8211156103105761030f61018e565b5b602082029050919050565b600061032e610329846102f5565b6101ee565b905080604084028301858111156103485761034761022f565b5b835b81811015610371578061035d88826102ca565b84526020840193505060408101905061034a565b5050509392505050565b600082601f8301126103905761038f610178565b5b600261039d84828561031b565b91505092915050565b600067ffffffffffffffff8211156103c1576103c061018e565b5b602082029050919050565b60006103df6103da846103a6565b6101ee565b905080602084028301858111156103f9576103f861022f565b5b835b81811015610422578061040e8882610255565b8452602084019350506020810190506103fb565b5050509392505050565b600082601f83011261044157610440610178565b5b600161044e8482856103cc565b91505092915050565b600080600080610120858703121561047257610471610173565b5b6000610480878288016102ca565b94505060406104918782880161037b565b93505060c06104a2878288016102ca565b9250506101006104b48782880161042c565b91505092959194509250565b60008115159050919050565b6104d5816104c0565b82525050565b60006020820190506104f060008301846104cc565b92915050565b600073ffffffffffffffffffffffffffffffffffffffff82169050919050565b6000610521826104f6565b9050919050565b61053181610516565b82525050565b600060208201905061054c6000830184610528565b92915050565b600060029050919050565b600081905092915050565b6000819050919050565b61057b81610234565b82525050565b600061058d8383610572565b60208301905092915050565b6000602082019050919050565b6105af81610552565b6105b9818461055d565b92506105c482610568565b8060005b838110156105f55781516105dc8782610581565b96506105e783610599565b9250506001810190506105c8565b505050505050565b600060029050919050565b600081905092915050565b6000819050919050565b600081905092915050565b61063181610552565b61063b818461061d565b925061064682610568565b8060005b8381101561067757815161065e8782610581565b965061066983610599565b92505060018101905061064a565b505050505050565b600061068b8383610628565b60408301905092915050565b6000602082019050919050565b6106ad816105fd565b6106b78184610608565b92506106c282610613565b8060005b838110156106f35781516106da878261067f565b96506106e583610697565b9250506001810190506106c6565b505050505050565b600060019050919050565b600081905092915050565b6000819050919050565b6000602082019050919050565b610731816106fb565b61073b8184610706565b925061074682610711565b8060005b8381101561077757815161075e8782610581565b96506107698361071b565b92505060018101905061074a565b505050505050565b60006101208201905061079560008301876105a6565b6107a260408301866106a4565b6107af60c08301856105a6565b6107bd610100830184610728565b95945050505050565b6107cf816104c0565b81146107da57600080fd5b50565b6000815190506107ec816107c6565b92915050565b60006020828403121561080857610807610173565b5b6000610816848285016107dd565b9150509291505056fea264697066735822122082d96c1799698728a2ff6e364c683c9c90fcc5bf4da8b8a7482b91702eec00e664736f6c63430008090033",
  "linkReferences": {},
  "deployedLinkReferences": {}
}